{
  "_format": "hh-sol-artifact-1",
  "contractName": "Escrow",
  "sourceName": "contracts/Escrow.sol",
  "abi": [
    {
      "inputs": [
        {
          "internalType": "address",
          "name": "_nftAddress",
          "type": "address"
        },
        {
          "internalType": "address payable",
          "name": "_seller",
          "type": "address"
        },
        {
          "internalType": "address",
          "name": "_valuator",
          "type": "address"
        },
        {
          "internalType": "address",
          "name": "_lender",
          "type": "address"
        }
      ],
      "stateMutability": "nonpayable",
      "type": "constructor"
    },
    {
      "inputs": [
        {
          "internalType": "uint256",
          "name": "",
          "type": "uint256"
        },
        {
          "internalType": "address",
          "name": "",
          "type": "address"
        }
      ],
      "name": "approval",
      "outputs": [
        {
          "internalType": "bool",
          "name": "",
          "type": "bool"
        }
      ],
      "stateMutability": "view",
      "type": "function"
    },
    {
      "inputs": [
        {
          "internalType": "uint256",
          "name": "_nftId",
          "type": "uint256"
        }
      ],
      "name": "approveSale",
      "outputs": [],
      "stateMutability": "nonpayable",
      "type": "function"
    },
    {
      "inputs": [
        {
          "internalType": "uint256",
          "name": "",
          "type": "uint256"
        }
      ],
      "name": "buyer",
      "outputs": [
        {
          "internalType": "address",
          "name": "",
          "type": "address"
        }
      ],
      "stateMutability": "view",
      "type": "function"
    },
    {
      "inputs": [
        {
          "internalType": "uint256",
          "name": "_nftId",
          "type": "uint256"
        }
      ],
      "name": "cancelSale",
      "outputs": [],
      "stateMutability": "nonpayable",
      "type": "function"
    },
    {
      "inputs": [
        {
          "internalType": "uint256",
          "name": "",
          "type": "uint256"
        }
      ],
      "name": "depositAmount",
      "outputs": [
        {
          "internalType": "uint256",
          "name": "",
          "type": "uint256"
        }
      ],
      "stateMutability": "view",
      "type": "function"
    },
    {
      "inputs": [
        {
          "internalType": "uint256",
          "name": "_nftId",
          "type": "uint256"
        }
      ],
      "name": "finalizeSale",
      "outputs": [],
      "stateMutability": "nonpayable",
      "type": "function"
    },
    {
      "inputs": [],
      "name": "getBalance",
      "outputs": [
        {
          "internalType": "uint256",
          "name": "",
          "type": "uint256"
        }
      ],
      "stateMutability": "view",
      "type": "function"
    },
    {
      "inputs": [
        {
          "internalType": "uint256",
          "name": "",
          "type": "uint256"
        }
      ],
      "name": "isListed",
      "outputs": [
        {
          "internalType": "bool",
          "name": "",
          "type": "bool"
        }
      ],
      "stateMutability": "view",
      "type": "function"
    },
    {
      "inputs": [],
      "name": "lender",
      "outputs": [
        {
          "internalType": "address",
          "name": "",
          "type": "address"
        }
      ],
      "stateMutability": "view",
      "type": "function"
    },
    {
      "inputs": [
        {
          "internalType": "uint256",
          "name": "_nftId",
          "type": "uint256"
        },
        {
          "internalType": "address",
          "name": "_buyer",
          "type": "address"
        },
        {
          "internalType": "uint256",
          "name": "_purchasePrice",
          "type": "uint256"
        },
        {
          "internalType": "uint256",
          "name": "_depositAmount",
          "type": "uint256"
        }
      ],
      "name": "list",
      "outputs": [],
      "stateMutability": "payable",
      "type": "function"
    },
    {
      "inputs": [],
      "name": "nftAddress",
      "outputs": [
        {
          "internalType": "address",
          "name": "",
          "type": "address"
        }
      ],
      "stateMutability": "view",
      "type": "function"
    },
    {
      "inputs": [
        {
          "internalType": "uint256",
          "name": "_nftId",
          "type": "uint256"
        }
      ],
      "name": "payDeposit",
      "outputs": [],
      "stateMutability": "payable",
      "type": "function"
    },
    {
      "inputs": [
        {
          "internalType": "uint256",
          "name": "",
          "type": "uint256"
        }
      ],
      "name": "purchasePrice",
      "outputs": [
        {
          "internalType": "uint256",
          "name": "",
          "type": "uint256"
        }
      ],
      "stateMutability": "view",
      "type": "function"
    },
    {
      "inputs": [],
      "name": "seller",
      "outputs": [
        {
          "internalType": "address payable",
          "name": "",
          "type": "address"
        }
      ],
      "stateMutability": "view",
      "type": "function"
    },
    {
      "inputs": [
        {
          "internalType": "uint256",
          "name": "_nftId",
          "type": "uint256"
        },
        {
          "internalType": "bool",
          "name": "_passed",
          "type": "bool"
        }
      ],
      "name": "updateValuationStatus",
      "outputs": [],
      "stateMutability": "nonpayable",
      "type": "function"
    },
    {
      "inputs": [
        {
          "internalType": "uint256",
          "name": "",
          "type": "uint256"
        }
      ],
      "name": "valuationPassed",
      "outputs": [
        {
          "internalType": "bool",
          "name": "",
          "type": "bool"
        }
      ],
      "stateMutability": "view",
      "type": "function"
    },
    {
      "inputs": [],
      "name": "valuator",
      "outputs": [
        {
          "internalType": "address",
          "name": "",
          "type": "address"
        }
      ],
      "stateMutability": "view",
      "type": "function"
    },
    {
      "stateMutability": "payable",
      "type": "receive"
    }
  ],
  "bytecode": "0x608060405234801561001057600080fd5b506040516115e93803806115e9833981810160405281019061003291906101df565b83600360006101000a81548173ffffffffffffffffffffffffffffffffffffffff021916908373ffffffffffffffffffffffffffffffffffffffff16021790555080600160006101000a81548173ffffffffffffffffffffffffffffffffffffffff021916908373ffffffffffffffffffffffffffffffffffffffff16021790555081600260006101000a81548173ffffffffffffffffffffffffffffffffffffffff021916908373ffffffffffffffffffffffffffffffffffffffff160217905550826000806101000a81548173ffffffffffffffffffffffffffffffffffffffff021916908373ffffffffffffffffffffffffffffffffffffffff16021790555050505050610246565b600080fd5b600073ffffffffffffffffffffffffffffffffffffffff82169050919050565b600061016e82610143565b9050919050565b61017e81610163565b811461018957600080fd5b50565b60008151905061019b81610175565b92915050565b60006101ac82610143565b9050919050565b6101bc816101a1565b81146101c757600080fd5b50565b6000815190506101d9816101b3565b92915050565b600080600080608085870312156101f9576101f861013e565b5b60006102078782880161018c565b9450506020610218878288016101ca565b93505060406102298782880161018c565b925050606061023a8782880161018c565b91505092959194509250565b611394806102556000396000f3fe6080604052600436106101025760003560e01c806387f8ab2611610095578063bd0ba44111610064578063bd0ba44114610345578063bd94b00514610370578063c9f0ec7e14610399578063f6b737ab146103b5578063fcce4883146103f257610109565b806387f8ab2614610277578063aa929380146102b4578063b848de35146102dd578063bcead63e1461031a57610109565b806337baa2a8116100d157806337baa2a8146101a95780634dd4acaf146101d25780635bf8633a1461020f57806377fbc4ae1461023a57610109565b806308551a531461010e57806312065fe01461013957806314a72feb1461016457806328cd3f181461018d57610109565b3661010957005b600080fd5b34801561011a57600080fd5b5061012361042f565b6040516101309190610ebc565b60405180910390f35b34801561014557600080fd5b5061014e610453565b60405161015b9190610ef0565b60405180910390f35b34801561017057600080fd5b5061018b60048036038101906101869190610f3c565b61045b565b005b6101a760048036038101906101a29190610f3c565b6104c7565b005b3480156101b557600080fd5b506101d060048036038101906101cb9190610fa1565b61058d565b005b3480156101de57600080fd5b506101f960048036038101906101f49190610f3c565b61064c565b6040516102069190611002565b60405180910390f35b34801561021b57600080fd5b5061022461067f565b6040516102319190611002565b60405180910390f35b34801561024657600080fd5b50610261600480360381019061025c9190610f3c565b6106a5565b60405161026e9190610ef0565b60405180910390f35b34801561028357600080fd5b5061029e60048036038101906102999190610f3c565b6106bd565b6040516102ab9190610ef0565b60405180910390f35b3480156102c057600080fd5b506102db60048036038101906102d69190610f3c565b6106d5565b005b3480156102e957600080fd5b5061030460048036038101906102ff9190611049565b610a49565b6040516103119190611098565b60405180910390f35b34801561032657600080fd5b5061032f610a78565b60405161033c9190611002565b60405180910390f35b34801561035157600080fd5b5061035a610a9e565b6040516103679190611002565b60405180910390f35b34801561037c57600080fd5b5061039760048036038101906103929190610f3c565b610ac4565b005b6103b360048036038101906103ae91906110b3565b610c68565b005b3480156103c157600080fd5b506103dc60048036038101906103d79190610f3c565b610e3b565b6040516103e99190611098565b60405180910390f35b3480156103fe57600080fd5b5061041960048036038101906104149190610f3c565b610e5b565b6040516104269190611098565b60405180910390f35b60008054906101000a900473ffffffffffffffffffffffffffffffffffffffff1681565b600047905090565b60016009600083815260200190815260200160002060003373ffffffffffffffffffffffffffffffffffffffff1673ffffffffffffffffffffffffffffffffffffffff16815260200190815260200160002060006101000a81548160ff02191690831515021790555050565b806007600082815260200190815260200160002060009054906101000a900473ffffffffffffffffffffffffffffffffffffffff1673ffffffffffffffffffffffffffffffffffffffff163373ffffffffffffffffffffffffffffffffffffffff1614610569576040517f08c379a00000000000000000000000000000000000000000000000000000000081526004016105609061119d565b60405180910390fd5b600660008381526020019081526020016000205434101561058957600080fd5b5050565b600260009054906101000a900473ffffffffffffffffffffffffffffffffffffffff1673ffffffffffffffffffffffffffffffffffffffff163373ffffffffffffffffffffffffffffffffffffffff161461061d576040517f08c379a00000000000000000000000000000000000000000000000000000000081526004016106149061122f565b60405180910390fd5b806008600084815260200190815260200160002060006101000a81548160ff0219169083151502179055505050565b60076020528060005260406000206000915054906101000a900473ffffffffffffffffffffffffffffffffffffffff1681565b600360009054906101000a900473ffffffffffffffffffffffffffffffffffffffff1681565b60056020528060005260406000206000915090505481565b60066020528060005260406000206000915090505481565b6008600082815260200190815260200160002060009054906101000a900460ff166106ff57600080fd5b6009600082815260200190815260200160002060006007600084815260200190815260200160002060009054906101000a900473ffffffffffffffffffffffffffffffffffffffff1673ffffffffffffffffffffffffffffffffffffffff1673ffffffffffffffffffffffffffffffffffffffff16815260200190815260200160002060009054906101000a900460ff1661079957600080fd5b6009600082815260200190815260200160002060008060009054906101000a900473ffffffffffffffffffffffffffffffffffffffff1673ffffffffffffffffffffffffffffffffffffffff1673ffffffffffffffffffffffffffffffffffffffff16815260200190815260200160002060009054906101000a900460ff1661082157600080fd5b600960008281526020019081526020016000206000600160009054906101000a900473ffffffffffffffffffffffffffffffffffffffff1673ffffffffffffffffffffffffffffffffffffffff1673ffffffffffffffffffffffffffffffffffffffff16815260200190815260200160002060009054906101000a900460ff166108aa57600080fd5b600560008281526020019081526020016000205060006004600083815260200190815260200160002060006101000a81548160ff02191690831515021790555060008060009054906101000a900473ffffffffffffffffffffffffffffffffffffffff1673ffffffffffffffffffffffffffffffffffffffff164760405161093190611280565b60006040518083038185875af1925050503d806000811461096e576040519150601f19603f3d011682016040523d82523d6000602084013e610973565b606091505b505090508061098157600080fd5b600360009054906101000a900473ffffffffffffffffffffffffffffffffffffffff1673ffffffffffffffffffffffffffffffffffffffff166323b872dd306007600086815260200190815260200160002060009054906101000a900473ffffffffffffffffffffffffffffffffffffffff16856040518463ffffffff1660e01b8152600401610a1393929190611295565b600060405180830381600087803b158015610a2d57600080fd5b505af1158015610a41573d6000803e3d6000fd5b505050505050565b60096020528160005260406000206020528060005260406000206000915091509054906101000a900460ff1681565b600160009054906101000a900473ffffffffffffffffffffffffffffffffffffffff1681565b600260009054906101000a900473ffffffffffffffffffffffffffffffffffffffff1681565b60006006600083815260200190815260200160002054905060006007600084815260200190815260200160002060009054906101000a900473ffffffffffffffffffffffffffffffffffffffff169050600015156008600085815260200190815260200160002060009054906101000a900460ff16151503610b8c578073ffffffffffffffffffffffffffffffffffffffff166108fc479081150290604051600060405180830381858888f19350505050158015610b86573d6000803e3d6000fd5b50610c63565b600082118015610b9c5750814710155b15610be9578073ffffffffffffffffffffffffffffffffffffffff166108fc839081150290604051600060405180830381858888f19350505050158015610be7573d6000803e3d6000fd5b505b60004790506000811115610c6157600160009054906101000a900473ffffffffffffffffffffffffffffffffffffffff1673ffffffffffffffffffffffffffffffffffffffff166108fc829081150290604051600060405180830381858888f19350505050158015610c5f573d6000803e3d6000fd5b505b505b505050565b60008054906101000a900473ffffffffffffffffffffffffffffffffffffffff1673ffffffffffffffffffffffffffffffffffffffff163373ffffffffffffffffffffffffffffffffffffffff1614610cf6576040517f08c379a0000000000000000000000000000000000000000000000000000000008152600401610ced9061133e565b60405180910390fd5b600360009054906101000a900473ffffffffffffffffffffffffffffffffffffffff1673ffffffffffffffffffffffffffffffffffffffff166323b872dd3330876040518463ffffffff1660e01b8152600401610d5593929190611295565b600060405180830381600087803b158015610d6f57600080fd5b505af1158015610d83573d6000803e3d6000fd5b5050505060016004600086815260200190815260200160002060006101000a81548160ff021916908315150217905550826007600086815260200190815260200160002060006101000a81548173ffffffffffffffffffffffffffffffffffffffff021916908373ffffffffffffffffffffffffffffffffffffffff16021790555081600560008681526020019081526020016000208190555080600660008681526020019081526020016000208190555050505050565b60086020528060005260406000206000915054906101000a900460ff1681565b60046020528060005260406000206000915054906101000a900460ff1681565b600073ffffffffffffffffffffffffffffffffffffffff82169050919050565b6000610ea682610e7b565b9050919050565b610eb681610e9b565b82525050565b6000602082019050610ed16000830184610ead565b92915050565b6000819050919050565b610eea81610ed7565b82525050565b6000602082019050610f056000830184610ee1565b92915050565b600080fd5b610f1981610ed7565b8114610f2457600080fd5b50565b600081359050610f3681610f10565b92915050565b600060208284031215610f5257610f51610f0b565b5b6000610f6084828501610f27565b91505092915050565b60008115159050919050565b610f7e81610f69565b8114610f8957600080fd5b50565b600081359050610f9b81610f75565b92915050565b60008060408385031215610fb857610fb7610f0b565b5b6000610fc685828601610f27565b9250506020610fd785828601610f8c565b9150509250929050565b6000610fec82610e7b565b9050919050565b610ffc81610fe1565b82525050565b60006020820190506110176000830184610ff3565b92915050565b61102681610fe1565b811461103157600080fd5b50565b6000813590506110438161101d565b92915050565b600080604083850312156110605761105f610f0b565b5b600061106e85828601610f27565b925050602061107f85828601611034565b9150509250929050565b61109281610f69565b82525050565b60006020820190506110ad6000830184611089565b92915050565b600080600080608085870312156110cd576110cc610f0b565b5b60006110db87828801610f27565b94505060206110ec87828801611034565b93505060406110fd87828801610f27565b925050606061110e87828801610f27565b91505092959194509250565b600082825260208201905092915050565b7f4f6e6c79207468652042757965722063616e2063616c6c20746869732066756e60008201527f6374696f6e000000000000000000000000000000000000000000000000000000602082015250565b600061118760258361111a565b91506111928261112b565b604082019050919050565b600060208201905081810360008301526111b68161117a565b9050919050565b7f4f6e6c79207468652056616c7561746f722063616e2063616c6c20746869732060008201527f66756e6374696f6e000000000000000000000000000000000000000000000000602082015250565b600061121960288361111a565b9150611224826111bd565b604082019050919050565b600060208201905081810360008301526112488161120c565b9050919050565b600081905092915050565b50565b600061126a60008361124f565b91506112758261125a565b600082019050919050565b600061128b8261125d565b9150819050919050565b60006060820190506112aa6000830186610ff3565b6112b76020830185610ff3565b6112c46040830184610ee1565b949350505050565b7f4f6e6c79207468652053656c6c65722063616e2063616c6c207468697320667560008201527f6e6374696f6e0000000000000000000000000000000000000000000000000000602082015250565b600061132860268361111a565b9150611333826112cc565b604082019050919050565b600060208201905081810360008301526113578161131b565b905091905056fea26469706673582212200d8ab41b8717801e6c776470ab90d6795bfc02cbe3355932f773ccfed5f9861564736f6c634300081c0033",
  "linkReferences": {},
  "deployedLinkReferences": {}
}