{
  "_format": "hh-sol-artifact-1",
  "contractName": "RealEstate",
  "sourceName": "contracts/RealEstate.sol",
  "abi": [
    {
      "inputs": [],
      "stateMutability": "nonpayable",
      "type": "constructor"
    },
    {
      "inputs": [
        {
          "internalType": "address",
          "name": "sender",
          "type": "address"
        },
        {
          "internalType": "uint256",
          "name": "tokenId",
          "type": "uint256"
        },
        {
          "internalType": "address",
          "name": "owner",
          "type": "address"
        }
      ],
      "name": "ERC721IncorrectOwner",
      "type": "error"
    },
    {
      "inputs": [
        {
          "internalType": "address",
          "name": "operator",
          "type": "address"
        },
        {
          "internalType": "uint256",
          "name": "tokenId",
          "type": "uint256"
        }
      ],
      "name": "ERC721InsufficientApproval",
      "type": "error"
    },
    {
      "inputs": [
        {
          "internalType": "address",
          "name": "approver",
          "type": "address"
        }
      ],
      "name": "ERC721InvalidApprover",
      "type": "error"
    },
    {
      "inputs": [
        {
          "internalType": "address",
          "name": "operator",
          "type": "address"
        }
      ],
      "name": "ERC721InvalidOperator",
      "type": "error"
    },
    {
      "inputs": [
        {
          "internalType": "address",
          "name": "owner",
          "type": "address"
        }
      ],
      "name": "ERC721InvalidOwner",
      "type": "error"
    },
    {
      "inputs": [
        {
          "internalType": "address",
          "name": "receiver",
          "type": "address"
        }
      ],
      "name": "ERC721InvalidReceiver",
      "type": "error"
    },
    {
      "inputs": [
        {
          "internalType": "address",
          "name": "sender",
          "type": "address"
        }
      ],
      "name": "ERC721InvalidSender",
      "type": "error"
    },
    {
      "inputs": [
        {
          "internalType": "uint256",
          "name": "tokenId",
          "type": "uint256"
        }
      ],
      "name": "ERC721NonexistentToken",
      "type": "error"
    },
    {
      "anonymous": false,
      "inputs": [
        {
          "indexed": true,
          "internalType": "address",
          "name": "owner",
          "type": "address"
        },
        {
          "indexed": true,
          "internalType": "address",
          "name": "approved",
          "type": "address"
        },
        {
          "indexed": true,
          "internalType": "uint256",
          "name": "tokenId",
          "type": "uint256"
        }
      ],
      "name": "Approval",
      "type": "event"
    },
    {
      "anonymous": false,
      "inputs": [
        {
          "indexed": true,
          "internalType": "address",
          "name": "owner",
          "type": "address"
        },
        {
          "indexed": true,
          "internalType": "address",
          "name": "operator",
          "type": "address"
        },
        {
          "indexed": false,
          "internalType": "bool",
          "name": "approved",
          "type": "bool"
        }
      ],
      "name": "ApprovalForAll",
      "type": "event"
    },
    {
      "anonymous": false,
      "inputs": [
        {
          "indexed": false,
          "internalType": "uint256",
          "name": "_fromTokenId",
          "type": "uint256"
        },
        {
          "indexed": false,
          "internalType": "uint256",
          "name": "_toTokenId",
          "type": "uint256"
        }
      ],
      "name": "BatchMetadataUpdate",
      "type": "event"
    },
    {
      "anonymous": false,
      "inputs": [
        {
          "indexed": false,
          "internalType": "uint256",
          "name": "_tokenId",
          "type": "uint256"
        }
      ],
      "name": "MetadataUpdate",
      "type": "event"
    },
    {
      "anonymous": false,
      "inputs": [
        {
          "indexed": true,
          "internalType": "address",
          "name": "from",
          "type": "address"
        },
        {
          "indexed": true,
          "internalType": "address",
          "name": "to",
          "type": "address"
        },
        {
          "indexed": true,
          "internalType": "uint256",
          "name": "tokenId",
          "type": "uint256"
        }
      ],
      "name": "Transfer",
      "type": "event"
    },
    {
      "inputs": [
        {
          "internalType": "address",
          "name": "to",
          "type": "address"
        },
        {
          "internalType": "uint256",
          "name": "tokenId",
          "type": "uint256"
        }
      ],
      "name": "approve",
      "outputs": [],
      "stateMutability": "nonpayable",
      "type": "function"
    },
    {
      "inputs": [
        {
          "internalType": "address",
          "name": "owner",
          "type": "address"
        }
      ],
      "name": "balanceOf",
      "outputs": [
        {
          "internalType": "uint256",
          "name": "",
          "type": "uint256"
        }
      ],
      "stateMutability": "view",
      "type": "function"
    },
    {
      "inputs": [
        {
          "internalType": "uint256",
          "name": "tokenId",
          "type": "uint256"
        }
      ],
      "name": "getApproved",
      "outputs": [
        {
          "internalType": "address",
          "name": "",
          "type": "address"
        }
      ],
      "stateMutability": "view",
      "type": "function"
    },
    {
      "inputs": [
        {
          "internalType": "address",
          "name": "owner",
          "type": "address"
        },
        {
          "internalType": "address",
          "name": "operator",
          "type": "address"
        }
      ],
      "name": "isApprovedForAll",
      "outputs": [
        {
          "internalType": "bool",
          "name": "",
          "type": "bool"
        }
      ],
      "stateMutability": "view",
      "type": "function"
    },
    {
      "inputs": [
        {
          "internalType": "string",
          "name": "tokenURI",
          "type": "string"
        }
      ],
      "name": "mint",
      "outputs": [
        {
          "internalType": "uint256",
          "name": "",
          "type": "uint256"
        }
      ],
      "stateMutability": "nonpayable",
      "type": "function"
    },
    {
      "inputs": [],
      "name": "name",
      "outputs": [
        {
          "internalType": "string",
          "name": "",
          "type": "string"
        }
      ],
      "stateMutability": "view",
      "type": "function"
    },
    {
      "inputs": [
        {
          "internalType": "uint256",
          "name": "tokenId",
          "type": "uint256"
        }
      ],
      "name": "ownerOf",
      "outputs": [
        {
          "internalType": "address",
          "name": "",
          "type": "address"
        }
      ],
      "stateMutability": "view",
      "type": "function"
    },
    {
      "inputs": [
        {
          "internalType": "address",
          "name": "from",
          "type": "address"
        },
        {
          "internalType": "address",
          "name": "to",
          "type": "address"
        },
        {
          "internalType": "uint256",
          "name": "tokenId",
          "type": "uint256"
        }
      ],
      "name": "safeTransferFrom",
      "outputs": [],
      "stateMutability": "nonpayable",
      "type": "function"
    },
    {
      "inputs": [
        {
          "internalType": "address",
          "name": "from",
          "type": "address"
        },
        {
          "internalType": "address",
          "name": "to",
          "type": "address"
        },
        {
          "internalType": "uint256",
          "name": "tokenId",
          "type": "uint256"
        },
        {
          "internalType": "bytes",
          "name": "data",
          "type": "bytes"
        }
      ],
      "name": "safeTransferFrom",
      "outputs": [],
      "stateMutability": "nonpayable",
      "type": "function"
    },
    {
      "inputs": [
        {
          "internalType": "address",
          "name": "operator",
          "type": "address"
        },
        {
          "internalType": "bool",
          "name": "approved",
          "type": "bool"
        }
      ],
      "name": "setApprovalForAll",
      "outputs": [],
      "stateMutability": "nonpayable",
      "type": "function"
    },
    {
      "inputs": [
        {
          "internalType": "bytes4",
          "name": "interfaceId",
          "type": "bytes4"
        }
      ],
      "name": "supportsInterface",
      "outputs": [
        {
          "internalType": "bool",
          "name": "",
          "type": "bool"
        }
      ],
      "stateMutability": "view",
      "type": "function"
    },
    {
      "inputs": [],
      "name": "symbol",
      "outputs": [
        {
          "internalType": "string",
          "name": "",
          "type": "string"
        }
      ],
      "stateMutability": "view",
      "type": "function"
    },
    {
      "inputs": [
        {
          "internalType": "uint256",
          "name": "tokenId",
          "type": "uint256"
        }
      ],
      "name": "tokenURI",
      "outputs": [
        {
          "internalType": "string",
          "name": "",
          "type": "string"
        }
      ],
      "stateMutability": "view",
      "type": "function"
    },
    {
      "inputs": [],
      "name": "totalSupply",
      "outputs": [
        {
          "internalType": "uint256",
          "name": "",
          "type": "uint256"
        }
      ],
      "stateMutability": "view",
      "type": "function"
    },
    {
      "inputs": [
        {
          "internalType": "address",
          "name": "from",
          "type": "address"
        },
        {
          "internalType": "address",
          "name": "to",
          "type": "address"
        },
        {
          "internalType": "uint256",
          "name": "tokenId",
          "type": "uint256"
        }
      ],
      "name": "transferFrom",
      "outputs": [],
      "stateMutability": "nonpayable",
      "type": "function"
    }
  ],
  "bytecode": "0x608060405234801561001057600080fd5b506040518060400160405280600b81526020017f5265616c204573746174650000000000000000000000000000000000000000008152506040518060400160405280600481526020017f5245414c00000000000000000000000000000000000000000000000000000000815250816000908161008c91906102f4565b50806001908161009c91906102f4565b5050506103c6565b600081519050919050565b7f4e487b7100000000000000000000000000000000000000000000000000000000600052604160045260246000fd5b7f4e487b7100000000000000000000000000000000000000000000000000000000600052602260045260246000fd5b6000600282049050600182168061012557607f821691505b602082108103610138576101376100de565b5b50919050565b60008190508160005260206000209050919050565b60006020601f8301049050919050565b600082821b905092915050565b6000600883026101a07fffffffffffffffffffffffffffffffffffffffffffffffffffffffffffffffff82610163565b6101aa8683610163565b95508019841693508086168417925050509392505050565b6000819050919050565b6000819050919050565b60006101f16101ec6101e7846101c2565b6101cc565b6101c2565b9050919050565b6000819050919050565b61020b836101d6565b61021f610217826101f8565b848454610170565b825550505050565b600090565b610234610227565b61023f818484610202565b505050565b5b818110156102635761025860008261022c565b600181019050610245565b5050565b601f8211156102a8576102798161013e565b61028284610153565b81016020851015610291578190505b6102a561029d85610153565b830182610244565b50505b505050565b600082821c905092915050565b60006102cb600019846008026102ad565b1980831691505092915050565b60006102e483836102ba565b9150826002028217905092915050565b6102fd826100a4565b67ffffffffffffffff811115610316576103156100af565b5b610320825461010d565b61032b828285610267565b600060209050601f83116001811461035e576000841561034c578287015190505b61035685826102d8565b8655506103be565b601f19841661036c8661013e565b60005b828110156103945784890151825560018201915060208501945060208101905061036f565b868310156103b157848901516103ad601f8916826102ba565b8355505b6001600288020188555050505b505050505050565b6123e2806103d56000396000f3fe608060405234801561001057600080fd5b50600436106100f55760003560e01c80636352211e11610097578063b88d4fde11610066578063b88d4fde14610284578063c87b56dd146102a0578063d85d3d27146102d0578063e985e9c514610300576100f5565b80636352211e146101ea57806370a082311461021a57806395d89b411461024a578063a22cb46514610268576100f5565b8063095ea7b3116100d3578063095ea7b31461017857806318160ddd1461019457806323b872dd146101b257806342842e0e146101ce576100f5565b806301ffc9a7146100fa57806306fdde031461012a578063081812fc14610148575b600080fd5b610114600480360381019061010f919061184d565b610330565b6040516101219190611895565b60405180910390f35b610132610391565b60405161013f9190611940565b60405180910390f35b610162600480360381019061015d9190611998565b610423565b60405161016f9190611a06565b60405180910390f35b610192600480360381019061018d9190611a4d565b61043f565b005b61019c610455565b6040516101a99190611a9c565b60405180910390f35b6101cc60048036038101906101c79190611ab7565b61045f565b005b6101e860048036038101906101e39190611ab7565b610561565b005b61020460048036038101906101ff9190611998565b610581565b6040516102119190611a06565b60405180910390f35b610234600480360381019061022f9190611b0a565b610593565b6040516102419190611a9c565b60405180910390f35b61025261064d565b60405161025f9190611940565b60405180910390f35b610282600480360381019061027d9190611b63565b6106df565b005b61029e60048036038101906102999190611cd8565b6106f5565b005b6102ba60048036038101906102b59190611998565b61071a565b6040516102c79190611940565b60405180910390f35b6102ea60048036038101906102e59190611dfc565b61082d565b6040516102f79190611a9c565b60405180910390f35b61031a60048036038101906103159190611e45565b61086b565b6040516103279190611895565b60405180910390f35b6000634906490660e01b7bffffffffffffffffffffffffffffffffffffffffffffffffffffffff1916827bffffffffffffffffffffffffffffffffffffffffffffffffffffffff1916148061038a5750610389826108ff565b5b9050919050565b6060600080546103a090611eb4565b80601f01602080910402602001604051908101604052809291908181526020018280546103cc90611eb4565b80156104195780601f106103ee57610100808354040283529160200191610419565b820191906000526020600020905b8154815290600101906020018083116103fc57829003601f168201915b5050505050905090565b600061042e826109e1565b5061043882610a69565b9050919050565b610451828261044c610aa6565b610aae565b5050565b6000600754905090565b600073ffffffffffffffffffffffffffffffffffffffff168273ffffffffffffffffffffffffffffffffffffffff16036104d15760006040517f64a0ae920000000000000000000000000000000000000000000000000000000081526004016104c89190611a06565b60405180910390fd5b60006104e583836104e0610aa6565b610ac0565b90508373ffffffffffffffffffffffffffffffffffffffff168173ffffffffffffffffffffffffffffffffffffffff161461055b578382826040517f64283d7b00000000000000000000000000000000000000000000000000000000815260040161055293929190611ee5565b60405180910390fd5b50505050565b61057c838383604051806020016040528060008152506106f5565b505050565b600061058c826109e1565b9050919050565b60008073ffffffffffffffffffffffffffffffffffffffff168273ffffffffffffffffffffffffffffffffffffffff16036106065760006040517f89c62b640000000000000000000000000000000000000000000000000000000081526004016105fd9190611a06565b60405180910390fd5b600360008373ffffffffffffffffffffffffffffffffffffffff1673ffffffffffffffffffffffffffffffffffffffff168152602001908152602001600020549050919050565b60606001805461065c90611eb4565b80601f016020809104026020016040519081016040528092919081815260200182805461068890611eb4565b80156106d55780601f106106aa576101008083540402835291602001916106d5565b820191906000526020600020905b8154815290600101906020018083116106b857829003601f168201915b5050505050905090565b6106f16106ea610aa6565b8383610cda565b5050565b61070084848461045f565b61071461070b610aa6565b85858585610e49565b50505050565b6060610725826109e1565b50600060066000848152602001908152602001600020805461074690611eb4565b80601f016020809104026020016040519081016040528092919081815260200182805461077290611eb4565b80156107bf5780601f10610794576101008083540402835291602001916107bf565b820191906000526020600020905b8154815290600101906020018083116107a257829003601f168201915b5050505050905060006107d0610ffa565b905060008151036107e5578192505050610828565b60008251111561081a578082604051602001610802929190611f58565b60405160208183030381529060405292505050610828565b61082384611011565b925050505b919050565b60006007600081548092919061084290611fab565b919050555060006007549050610858338261107a565b6108628184611173565b80915050919050565b6000600560008473ffffffffffffffffffffffffffffffffffffffff1673ffffffffffffffffffffffffffffffffffffffff16815260200190815260200160002060008373ffffffffffffffffffffffffffffffffffffffff1673ffffffffffffffffffffffffffffffffffffffff16815260200190815260200160002060009054906101000a900460ff16905092915050565b60007f80ac58cd000000000000000000000000000000000000000000000000000000007bffffffffffffffffffffffffffffffffffffffffffffffffffffffff1916827bffffffffffffffffffffffffffffffffffffffffffffffffffffffff191614806109ca57507f5b5e139f000000000000000000000000000000000000000000000000000000007bffffffffffffffffffffffffffffffffffffffffffffffffffffffff1916827bffffffffffffffffffffffffffffffffffffffffffffffffffffffff1916145b806109da57506109d9826111cf565b5b9050919050565b6000806109ed83611239565b9050600073ffffffffffffffffffffffffffffffffffffffff168173ffffffffffffffffffffffffffffffffffffffff1603610a6057826040517f7e273289000000000000000000000000000000000000000000000000000000008152600401610a579190611a9c565b60405180910390fd5b80915050919050565b60006004600083815260200190815260200160002060009054906101000a900473ffffffffffffffffffffffffffffffffffffffff169050919050565b600033905090565b610abb8383836001611276565b505050565b600080610acc84611239565b9050600073ffffffffffffffffffffffffffffffffffffffff168373ffffffffffffffffffffffffffffffffffffffff1614610b0e57610b0d81848661143b565b5b600073ffffffffffffffffffffffffffffffffffffffff168173ffffffffffffffffffffffffffffffffffffffff1614610b9f57610b50600085600080611276565b6001600360008373ffffffffffffffffffffffffffffffffffffffff1673ffffffffffffffffffffffffffffffffffffffff168152602001908152602001600020600082825403925050819055505b600073ffffffffffffffffffffffffffffffffffffffff168573ffffffffffffffffffffffffffffffffffffffff1614610c22576001600360008773ffffffffffffffffffffffffffffffffffffffff1673ffffffffffffffffffffffffffffffffffffffff168152602001908152602001600020600082825401925050819055505b846002600086815260200190815260200160002060006101000a81548173ffffffffffffffffffffffffffffffffffffffff021916908373ffffffffffffffffffffffffffffffffffffffff160217905550838573ffffffffffffffffffffffffffffffffffffffff168273ffffffffffffffffffffffffffffffffffffffff167fddf252ad1be2c89b69c2b068fc378daa952ba7f163c4a11628f55a4df523b3ef60405160405180910390a4809150509392505050565b600073ffffffffffffffffffffffffffffffffffffffff168273ffffffffffffffffffffffffffffffffffffffff1603610d4b57816040517f5b08ba18000000000000000000000000000000000000000000000000000000008152600401610d429190611a06565b60405180910390fd5b80600560008573ffffffffffffffffffffffffffffffffffffffff1673ffffffffffffffffffffffffffffffffffffffff16815260200190815260200160002060008473ffffffffffffffffffffffffffffffffffffffff1673ffffffffffffffffffffffffffffffffffffffff16815260200190815260200160002060006101000a81548160ff0219169083151502179055508173ffffffffffffffffffffffffffffffffffffffff168373ffffffffffffffffffffffffffffffffffffffff167f17307eab39ab6107e8899845ad3d59bd9653f200f220920489ca2b5937696c3183604051610e3c9190611895565b60405180910390a3505050565b60008373ffffffffffffffffffffffffffffffffffffffff163b1115610ff3578273ffffffffffffffffffffffffffffffffffffffff1663150b7a02868685856040518563ffffffff1660e01b8152600401610ea89493929190612048565b6020604051808303816000875af1925050508015610ee457506040513d601f19601f82011682018060405250810190610ee191906120a9565b60015b610f68573d8060008114610f14576040519150601f19603f3d011682016040523d82523d6000602084013e610f19565b606091505b506000815103610f6057836040517f64a0ae92000000000000000000000000000000000000000000000000000000008152600401610f579190611a06565b60405180910390fd5b805181602001fd5b63150b7a0260e01b7bffffffffffffffffffffffffffffffffffffffffffffffffffffffff1916817bffffffffffffffffffffffffffffffffffffffffffffffffffffffff191614610ff157836040517f64a0ae92000000000000000000000000000000000000000000000000000000008152600401610fe89190611a06565b60405180910390fd5b505b5050505050565b606060405180602001604052806000815250905090565b606061101c826109e1565b506000611027610ffa565b905060008151116110475760405180602001604052806000815250611072565b80611051846114ff565b604051602001611062929190611f58565b6040516020818303038152906040525b915050919050565b600073ffffffffffffffffffffffffffffffffffffffff168273ffffffffffffffffffffffffffffffffffffffff16036110ec5760006040517f64a0ae920000000000000000000000000000000000000000000000000000000081526004016110e39190611a06565b60405180910390fd5b60006110fa83836000610ac0565b9050600073ffffffffffffffffffffffffffffffffffffffff168173ffffffffffffffffffffffffffffffffffffffff161461116e5760006040517f73c6ac6e0000000000000000000000000000000000000000000000000000000081526004016111659190611a06565b60405180910390fd5b505050565b806006600084815260200190815260200160002090816111939190612282565b507ff8e1a15aba9398e019f0b49df1a4fde98ee17ae345cb5f6b5e2c27f5033e8ce7826040516111c39190611a9c565b60405180910390a15050565b60007f01ffc9a7000000000000000000000000000000000000000000000000000000007bffffffffffffffffffffffffffffffffffffffffffffffffffffffff1916827bffffffffffffffffffffffffffffffffffffffffffffffffffffffff1916149050919050565b60006002600083815260200190815260200160002060009054906101000a900473ffffffffffffffffffffffffffffffffffffffff169050919050565b80806112af5750600073ffffffffffffffffffffffffffffffffffffffff168273ffffffffffffffffffffffffffffffffffffffff1614155b156113e35760006112bf846109e1565b9050600073ffffffffffffffffffffffffffffffffffffffff168373ffffffffffffffffffffffffffffffffffffffff161415801561132a57508273ffffffffffffffffffffffffffffffffffffffff168173ffffffffffffffffffffffffffffffffffffffff1614155b801561133d575061133b818461086b565b155b1561137f57826040517fa9fbf51f0000000000000000000000000000000000000000000000000000000081526004016113769190611a06565b60405180910390fd5b81156113e157838573ffffffffffffffffffffffffffffffffffffffff168273ffffffffffffffffffffffffffffffffffffffff167f8c5be1e5ebec7d5bd14f71427d1e84f3dd0314c0f7b2291e5b200ac8c7c3b92560405160405180910390a45b505b836004600085815260200190815260200160002060006101000a81548173ffffffffffffffffffffffffffffffffffffffff021916908373ffffffffffffffffffffffffffffffffffffffff16021790555050505050565b6114468383836115cd565b6114fa57600073ffffffffffffffffffffffffffffffffffffffff168373ffffffffffffffffffffffffffffffffffffffff16036114bb57806040517f7e2732890000000000000000000000000000000000000000000000000000000081526004016114b29190611a9c565b60405180910390fd5b81816040517f177e802f0000000000000000000000000000000000000000000000000000000081526004016114f1929190612354565b60405180910390fd5b505050565b60606000600161150e8461168e565b01905060008167ffffffffffffffff81111561152d5761152c611bad565b5b6040519080825280601f01601f19166020018201604052801561155f5781602001600182028036833780820191505090505b509050600082602001820190505b6001156115c2578080600190039150507f3031323334353637383961626364656600000000000000000000000000000000600a86061a8153600a85816115b6576115b561237d565b5b0494506000850361156d575b819350505050919050565b60008073ffffffffffffffffffffffffffffffffffffffff168373ffffffffffffffffffffffffffffffffffffffff161415801561168557508273ffffffffffffffffffffffffffffffffffffffff168473ffffffffffffffffffffffffffffffffffffffff1614806116465750611645848461086b565b5b8061168457508273ffffffffffffffffffffffffffffffffffffffff1661166c83610a69565b73ffffffffffffffffffffffffffffffffffffffff16145b5b90509392505050565b600080600090507a184f03e93ff9f4daa797ed6e38ed64bf6a1f01000000000000000083106116ec577a184f03e93ff9f4daa797ed6e38ed64bf6a1f01000000000000000083816116e2576116e161237d565b5b0492506040810190505b6d04ee2d6d415b85acef81000000008310611729576d04ee2d6d415b85acef8100000000838161171f5761171e61237d565b5b0492506020810190505b662386f26fc10000831061175857662386f26fc10000838161174e5761174d61237d565b5b0492506010810190505b6305f5e1008310611781576305f5e10083816117775761177661237d565b5b0492506008810190505b61271083106117a657612710838161179c5761179b61237d565b5b0492506004810190505b606483106117c957606483816117bf576117be61237d565b5b0492506002810190505b600a83106117d8576001810190505b80915050919050565b6000604051905090565b600080fd5b600080fd5b60007fffffffff0000000000000000000000000000000000000000000000000000000082169050919050565b61182a816117f5565b811461183557600080fd5b50565b60008135905061184781611821565b92915050565b600060208284031215611863576118626117eb565b5b600061187184828501611838565b91505092915050565b60008115159050919050565b61188f8161187a565b82525050565b60006020820190506118aa6000830184611886565b92915050565b600081519050919050565b600082825260208201905092915050565b60005b838110156118ea5780820151818401526020810190506118cf565b60008484015250505050565b6000601f19601f8301169050919050565b6000611912826118b0565b61191c81856118bb565b935061192c8185602086016118cc565b611935816118f6565b840191505092915050565b6000602082019050818103600083015261195a8184611907565b905092915050565b6000819050919050565b61197581611962565b811461198057600080fd5b50565b6000813590506119928161196c565b92915050565b6000602082840312156119ae576119ad6117eb565b5b60006119bc84828501611983565b91505092915050565b600073ffffffffffffffffffffffffffffffffffffffff82169050919050565b60006119f0826119c5565b9050919050565b611a00816119e5565b82525050565b6000602082019050611a1b60008301846119f7565b92915050565b611a2a816119e5565b8114611a3557600080fd5b50565b600081359050611a4781611a21565b92915050565b60008060408385031215611a6457611a636117eb565b5b6000611a7285828601611a38565b9250506020611a8385828601611983565b9150509250929050565b611a9681611962565b82525050565b6000602082019050611ab16000830184611a8d565b92915050565b600080600060608486031215611ad057611acf6117eb565b5b6000611ade86828701611a38565b9350506020611aef86828701611a38565b9250506040611b0086828701611983565b9150509250925092565b600060208284031215611b2057611b1f6117eb565b5b6000611b2e84828501611a38565b91505092915050565b611b408161187a565b8114611b4b57600080fd5b50565b600081359050611b5d81611b37565b92915050565b60008060408385031215611b7a57611b796117eb565b5b6000611b8885828601611a38565b9250506020611b9985828601611b4e565b9150509250929050565b600080fd5b600080fd5b7f4e487b7100000000000000000000000000000000000000000000000000000000600052604160045260246000fd5b611be5826118f6565b810181811067ffffffffffffffff82111715611c0457611c03611bad565b5b80604052505050565b6000611c176117e1565b9050611c238282611bdc565b919050565b600067ffffffffffffffff821115611c4357611c42611bad565b5b611c4c826118f6565b9050602081019050919050565b82818337600083830152505050565b6000611c7b611c7684611c28565b611c0d565b905082815260208101848484011115611c9757611c96611ba8565b5b611ca2848285611c59565b509392505050565b600082601f830112611cbf57611cbe611ba3565b5b8135611ccf848260208601611c68565b91505092915050565b60008060008060808587031215611cf257611cf16117eb565b5b6000611d0087828801611a38565b9450506020611d1187828801611a38565b9350506040611d2287828801611983565b925050606085013567ffffffffffffffff811115611d4357611d426117f0565b5b611d4f87828801611caa565b91505092959194509250565b600067ffffffffffffffff821115611d7657611d75611bad565b5b611d7f826118f6565b9050602081019050919050565b6000611d9f611d9a84611d5b565b611c0d565b905082815260208101848484011115611dbb57611dba611ba8565b5b611dc6848285611c59565b509392505050565b600082601f830112611de357611de2611ba3565b5b8135611df3848260208601611d8c565b91505092915050565b600060208284031215611e1257611e116117eb565b5b600082013567ffffffffffffffff811115611e3057611e2f6117f0565b5b611e3c84828501611dce565b91505092915050565b60008060408385031215611e5c57611e5b6117eb565b5b6000611e6a85828601611a38565b9250506020611e7b85828601611a38565b9150509250929050565b7f4e487b7100000000000000000000000000000000000000000000000000000000600052602260045260246000fd5b60006002820490506001821680611ecc57607f821691505b602082108103611edf57611ede611e85565b5b50919050565b6000606082019050611efa60008301866119f7565b611f076020830185611a8d565b611f1460408301846119f7565b949350505050565b600081905092915050565b6000611f32826118b0565b611f3c8185611f1c565b9350611f4c8185602086016118cc565b80840191505092915050565b6000611f648285611f27565b9150611f708284611f27565b91508190509392505050565b7f4e487b7100000000000000000000000000000000000000000000000000000000600052601160045260246000fd5b6000611fb682611962565b91507fffffffffffffffffffffffffffffffffffffffffffffffffffffffffffffffff8203611fe857611fe7611f7c565b5b600182019050919050565b600081519050919050565b600082825260208201905092915050565b600061201a82611ff3565b6120248185611ffe565b93506120348185602086016118cc565b61203d816118f6565b840191505092915050565b600060808201905061205d60008301876119f7565b61206a60208301866119f7565b6120776040830185611a8d565b8181036060830152612089818461200f565b905095945050505050565b6000815190506120a381611821565b92915050565b6000602082840312156120bf576120be6117eb565b5b60006120cd84828501612094565b91505092915050565b60008190508160005260206000209050919050565b60006020601f8301049050919050565b600082821b905092915050565b6000600883026121387fffffffffffffffffffffffffffffffffffffffffffffffffffffffffffffffff826120fb565b61214286836120fb565b95508019841693508086168417925050509392505050565b6000819050919050565b600061217f61217a61217584611962565b61215a565b611962565b9050919050565b6000819050919050565b61219983612164565b6121ad6121a582612186565b848454612108565b825550505050565b600090565b6121c26121b5565b6121cd818484612190565b505050565b5b818110156121f1576121e66000826121ba565b6001810190506121d3565b5050565b601f82111561223657612207816120d6565b612210846120eb565b8101602085101561221f578190505b61223361222b856120eb565b8301826121d2565b50505b505050565b600082821c905092915050565b60006122596000198460080261223b565b1980831691505092915050565b60006122728383612248565b9150826002028217905092915050565b61228b826118b0565b67ffffffffffffffff8111156122a4576122a3611bad565b5b6122ae8254611eb4565b6122b98282856121f5565b600060209050601f8311600181146122ec57600084156122da578287015190505b6122e48582612266565b86555061234c565b601f1984166122fa866120d6565b60005b82811015612322578489015182556001820191506020850194506020810190506122fd565b8683101561233f578489015161233b601f891682612248565b8355505b6001600288020188555050505b505050505050565b600060408201905061236960008301856119f7565b6123766020830184611a8d565b9392505050565b7f4e487b7100000000000000000000000000000000000000000000000000000000600052601260045260246000fdfea26469706673582212204fb617817e562549c712127010068588cc0a49b7bc468ba2ec02729890c7845264736f6c634300081c0033",
  "linkReferences": {},
  "deployedLinkReferences": {}
}